:020000020000FC
:100000000FE90DBFB89AC098BB9ABC9A46E759E76A
:1000100068E37FE308D04BD040E45CE76EE679E725
:1000200002D045D0F3CF36D000E414D038D032D04F
:1000300000EC10D0042F0ED0052F0CD0062F0AD0C4
:10004000072F08D02CD026D00FE804D028D005E008
:100050001CD0089518E0C398202F2170213011F48E
:10006000C49A02C0C49800C000000695C39A00005C
:100070001A95103081F7C3980000BC98B499FECF50
:10008000BC9AC39A0000C39808950A9500000030F6
:10009000E1F70895C39AC49A0000C4980895C398DC
:1000A0000000C4980000C39A0000C49A089527E095
:1000B00037E14AE64A95F1F73A95E1F72A95D1F703
:0400C00000C00895DF
:00000001FF
